:100000000C942A000C9434000C9434000C943400AA
:100010000C9434000C9434000C9434000C94340090
:100020000C9434000C9434000C9434000C94340080
:100030000C9434000C9434000C9434000C94340070
:100040000C9434000C9434000C9434000C94340060
:100050000C94340011241FBECFE5D8E0DEBFCDBF25
:100060000E9436000C94E3000C940000EF92FF9283
:100070000F931F938FEF8ABB9FE3F92E28EC30E09C
:1000800006E01BE5BFE476E6ADE66DE757E04FE737
:1000900087EEE82EFBBA88EB9BE0F9013197F1F788
:1000A0000197D9F70BBB88EB9BE0F9013197F1F78A
:1000B0000197D9F71BBB88EB9BE0F9013197F1F76A
:1000C0000197D9F7BBBB88EB9BE0F9013197F1F7BA
:1000D0000197D9F77BBB88EB9BE0F9013197F1F7EA
:1000E0000197D9F7ABBB88EB9BE0F9013197F1F7AA
:1000F0000197D9F76BBB88EB9BE0F9013197F1F7DA
:100100000197D9F75BBB88EB9BE0F9013197F1F7D9
:100110000197D9F74BBB88EB9BE0F9013197F1F7D9
:100120000197D9F7EBBA88E59BE1F9013197F1F72F
:100130000197D9F74BBB88EB9BE0F9013197F1F7B9
:100140000197D9F75BBB88EB9BE0F9013197F1F799
:100150000197D9F76BBB88EB9BE0F9013197F1F779
:100160000197D9F7ABBB88EB9BE0F9013197F1F729
:100170000197D9F77BBB88EB9BE0F9013197F1F749
:100180000197D9F7BBBB88EB9BE0F9013197F1F7F9
:100190000197D9F71BBB88EB9BE0F9013197F1F789
:1001A0000197D9F70BBB88EB9BE0F9013197F1F789
:1001B0000197D9F7FBBA88EB9BE0F9013197F1F78A
:0A01C0000197D9F767CFF894FFCF3D
:00000001FF
