:100000000C942A000C9434000C9434000C943400AA
:100010000C9434000C9434000C9434000C94340090
:100020000C9434000C9434000C9434000C94340080
:100030000C9434000C9434000C9434000C94340070
:100040000C9434000C9434000C9434000C94340060
:100050000C94340011241FBECFE5D8E0DEBFCDBF25
:100060000E9436000C9452000C9400008FEF8ABB63
:1000700087BB76E06FE428EC30E05FE34FE77BBBC3
:1000800068BB88EE93E0F9013197F1F70197D9F752
:100090005BBB48BB88EE93E0F9013197F1F701971C
:0800A000D9F7EDCFF894FFCF72
:00000001FF
